{
  "contractName": "BugTracker",
  "abi": [
    {
      "constant": true,
      "inputs": [
        {
          "name": "",
          "type": "uint256"
        }
      ],
      "name": "tasks",
      "outputs": [
        {
          "name": "id",
          "type": "uint256"
        },
        {
          "name": "title",
          "type": "string"
        },
        {
          "name": "content",
          "type": "string"
        },
        {
          "name": "completed",
          "type": "bool"
        }
      ],
      "payable": false,
      "stateMutability": "view",
      "type": "function",
      "signature": "0x8d977672"
    },
    {
      "constant": true,
      "inputs": [],
      "name": "taskCount",
      "outputs": [
        {
          "name": "",
          "type": "uint256"
        }
      ],
      "payable": false,
      "stateMutability": "view",
      "type": "function",
      "signature": "0xb6cb58a5"
    },
    {
      "inputs": [],
      "payable": false,
      "stateMutability": "nonpayable",
      "type": "constructor",
      "signature": "constructor"
    },
    {
      "anonymous": false,
      "inputs": [
        {
          "indexed": false,
          "name": "id",
          "type": "uint256"
        },
        {
          "indexed": false,
          "name": "title",
          "type": "string"
        },
        {
          "indexed": false,
          "name": "content",
          "type": "string"
        },
        {
          "indexed": false,
          "name": "completed",
          "type": "bool"
        }
      ],
      "name": "TaskCreated",
      "type": "event",
      "signature": "0x1f1dc866a3d68607b66a89eaa8e2ebf7a04f8ed36bd9e3d5139ca4ce0d554155"
    },
    {
      "constant": false,
      "inputs": [
        {
          "name": "_title",
          "type": "string"
        },
        {
          "name": "_content",
          "type": "string"
        }
      ],
      "name": "createTask",
      "outputs": [],
      "payable": false,
      "stateMutability": "nonpayable",
      "type": "function",
      "signature": "0x292a4585"
    }
  ],
  "bytecode": "0x60806040526000805534801561001457600080fd5b506100bf6040805190810160405280600b81526020017f4669727374204275676767000000000000000000000000000000000000000000815250606060405190810160405280602181526020017f416c6c20796f75722062617365206172652062656c6f6e6720746f207573676781526020017f67000000000000000000000000000000000000000000000000000000000000008152506100c4640100000000026401000000009004565b61030e565b60008054600190810180835560408051608081018252828152602080820188815282840188905260608301879052938652848152919094208451815591518051929361011893908501929190910190610273565b5060408201518051610134916002840191602090910190610273565b5060608201518160030160006101000a81548160ff0219169083151502179055509050507f1f1dc866a3d68607b66a89eaa8e2ebf7a04f8ed36bd9e3d5139ca4ce0d5541556000548383600060405180858152602001806020018060200184151515158152602001838103835286818151815260200191508051906020019080838360005b838110156101d15781810151838201526020016101b9565b50505050905090810190601f1680156101fe5780820380516001836020036101000a031916815260200191505b50838103825285518152855160209182019187019080838360005b83811015610231578181015183820152602001610219565b50505050905090810190601f16801561025e5780820380516001836020036101000a031916815260200191505b50965050505050505060405180910390a15050565b828054600181600116156101000203166002900490600052602060002090601f016020900481019282601f106102b457805160ff19168380011785556102e1565b828001600101855582156102e1579182015b828111156102e15782518255916020019190600101906102c6565b506102ed9291506102f1565b5090565b61030b91905b808211156102ed57600081556001016102f7565b90565b6106958061031d6000396000f3fe6080604052600436106100565763ffffffff7c0100000000000000000000000000000000000000000000000000000000600035041663292a4585811461005b5780638d97767214610197578063b6cb58a5146102b1575b600080fd5b34801561006757600080fd5b506101956004803603604081101561007e57600080fd5b81019060208101813564010000000081111561009957600080fd5b8201836020820111156100ab57600080fd5b803590602001918460018302840111640100000000831117156100cd57600080fd5b91908080601f016020809104026020016040519081016040528093929190818152602001838380828437600092019190915250929594936020810193503591505064010000000081111561012057600080fd5b82018360208201111561013257600080fd5b8035906020019184600183028401116401000000008311171561015457600080fd5b91908080601f0160208091040260200160405190810160405280939291908181526020018383808284376000920191909152509295506102d8945050505050565b005b3480156101a357600080fd5b506101c1600480360360208110156101ba57600080fd5b5035610487565b60405180858152602001806020018060200184151515158152602001838103835286818151815260200191508051906020019080838360005b838110156102125781810151838201526020016101fa565b50505050905090810190601f16801561023f5780820380516001836020036101000a031916815260200191505b50838103825285518152855160209182019187019080838360005b8381101561027257818101518382015260200161025a565b50505050905090810190601f16801561029f5780820380516001836020036101000a031916815260200191505b50965050505050505060405180910390f35b3480156102bd57600080fd5b506102c66105c8565b60408051918252519081900360200190f35b60008054600190810180835560408051608081018252828152602080820188815282840188905260608301879052938652848152919094208451815591518051929361032c939085019291909101906105ce565b50604082015180516103489160028401916020909101906105ce565b5060608201518160030160006101000a81548160ff0219169083151502179055509050507f1f1dc866a3d68607b66a89eaa8e2ebf7a04f8ed36bd9e3d5139ca4ce0d5541556000548383600060405180858152602001806020018060200184151515158152602001838103835286818151815260200191508051906020019080838360005b838110156103e55781810151838201526020016103cd565b50505050905090810190601f1680156104125780820380516001836020036101000a031916815260200191505b50838103825285518152855160209182019187019080838360005b8381101561044557818101518382015260200161042d565b50505050905090810190601f1680156104725780820380516001836020036101000a031916815260200191505b50965050505050505060405180910390a15050565b600160208181526000928352604092839020805481840180548651600296821615610100026000190190911695909504601f810185900485028601850190965285855290949193929091908301828280156105235780601f106104f857610100808354040283529160200191610523565b820191906000526020600020905b81548152906001019060200180831161050657829003601f168201915b50505060028085018054604080516020601f60001961010060018716150201909416959095049283018590048502810185019091528181529596959450909250908301828280156105b55780601f1061058a576101008083540402835291602001916105b5565b820191906000526020600020905b81548152906001019060200180831161059857829003601f168201915b5050506003909301549192505060ff1684565b60005481565b828054600181600116156101000203166002900490600052602060002090601f016020900481019282601f1061060f57805160ff191683800117855561063c565b8280016001018555821561063c579182015b8281111561063c578251825591602001919060010190610621565b5061064892915061064c565b5090565b61066691905b808211156106485760008155600101610652565b9056fea165627a7a723058200d5b9ae2eb6d1ae6e9d8dab61d04d83b2fd5949d8465d0ff8fb7eb4eebd0bc790029",
  "source": "pragma solidity ^0.5.0;\n\ncontract BugTracker {\n\tuint public taskCount = 0;\n\n\tstruct Task {\n\t\tuint id;\n\t\tstring title;\n\t\tstring content;\n\t\tbool completed;\n\t}\n\n\tmapping(uint => Task) public tasks;\n\n\tevent TaskCreated(\n\t\tuint id,\n\t\tstring title,\n\t\tstring content,\n\t\tbool completed\n\t\t);\n\n\tconstructor() public {\n\t\tcreateTask(\"First Buggg\", \"All your base are belong to usggg\");\n\t}\n\n\tfunction createTask(string memory _title, string memory _content) public {\n\t\ttaskCount ++;\n\t\ttasks[taskCount] = Task(taskCount, _title, _content, false);\n\t\temit TaskCreated(taskCount, _title, _content, false);\n\n\t}\n\n}",
  "sourcePath": "/Users/richardrosenthal/Desktop/bug-tracker/contracts/BugTracker.sol",
  "compiler": {
    "name": "solc",
    "version": "0.5.0+commit.1d4f565a.Emscripten.clang"
  },
  "schemaVersion": "3.0.1",
  "updatedAt": "2020-05-17T07:28:58.204Z",
  "devdoc": {
    "methods": {}
  },
  "userdoc": {
    "methods": {}
  }
}